:040000008A15952A9E
:10000800FF00030E8301031799000A089A008A016A
:1000180070080313A2000B1D292801308316EE0275
:10002800031CEF0300306F06031D1C2800306E060A
:10003800031D28280F30EE000030EF0083128101E5
:1000480003179F0A0319A00A0B110B1E33288B1CD8
:100058003328831201300313A6000030A7008B1D3C
:1000680045280B1C452883120313061E3F28013020
:10007800AD000030AE00861E45280130AF000030CC
:10008800B0008B100B10831203132208F000031723
:0E0098001A088A00190E8300FF0E7F0E090061
:1000A6007B15FB1F5D280130F300F201F101F00121
:0800B600FA0DF20CFF30080006
:1000BE00103083120313FD00FD0B632800000800AF
:0800CE00FA1FF21300300800D4
:0E00D600F201F101F001F801F3010030080021
:1000E400083083120313FC002330FD00FD0B782835
:0600F400FC0B7828080057
:0400FA0000000800FA
:1000FE00A1017208031D94287108F2007008F10026
:10010E00F001A1157208031D94287108F200F10187
:10011E00A111211672080319A2282108F302031D4A
:10012E00031CA6280310F21BAA28F00DF10DF20DE8
:10013E00F30B9A28A6280130FC006B20AD28023064
:0E014E00FC005320AD280430FC0067200800A0
:06015C00FB15FF30080056
:0E016200073083120313FD00FD0BB5280800C3
:1001700083120317BA1BBF2803138811C128031366
:10018000881503173A1BC72803130811C92803133E
:1001900008150317BA1ACF2803138810D1280313A0
:1001A000881403173A1AD72803130810D928031301
:1001B000081403171218DF2803130816E128031385
:1001C000081288167D2088120317BA19EA2803132B
:1001D0008811EC280313881503173A19F228031322
:1001E0000811F428031308150317BA18FA28031383
:1001F0008810FC280313881403173A1802290313E4
:100200000810042903130814031712180A290313EA
:1002100008160C290313081288167D20881203176C
:0C022000121C1429722015295F20080010
:10022C0083120317BA03BA033A08003C03182329B4
:10023C00BA030000000000001A29000000000000B2
:06024C00000000000800A4
:1002520083120313FB01FA01F901F801A001730DE6
:10026200F80D7408F8027508031C750FF902760878
:10027200031C760FFA027708031C770FFB020001BA
:10028200031C0130A002F30D0730FC00730DF80DC2
:10029200F90DFA0DFB0DA00D7408731C6229F8020A
:1002A2007508031C750FF9027608031C760FFA0213
:1002B2007708031C770FFB020001031C0130A00228
:1002C2007329F80775080318750FF90776080318DC
:1002D200760FFA0777080318770FFB070001031858
:1002E2000130A007F30DFC0B4729720DF80DF90D33
:1002F200FA0DFB0DA00D7408731C9129F802750804
:10030200031C750FF9027608031C760FFA027708B0
:10031200031C770FFB020001031C0130A002A2297B
:10032200F80775080318750FF90776080318760F92
:10033200FA0777080318770FFB070001031801304B
:10034200A007F20D0730FC00720DF80DF90DFA0D41
:10035200FB0DA00D7408721CC029F8027508031C5D
:10036200750FF9027608031C760FFA027708031C50
:10037200770FFB020001031C0130A002D129F8070C
:1003820075080318750FF90776080318760FFA0730
:1003920077080318770FFB07000103180130A00745
:1003A200F20DFC0BA529710DF80DF90DFA0DFB0DDF
:1003B200A00D7408721CEF29F8027508031C750F52
:1003C200F9027608031C760FFA027708031C770FEE
:1003D200FB020001031C0130A002002AF807750885
:1003E2000318750FF90776080318760FFA077708CE
:1003F2000318770FFB07000103180130A007F10D66
:100402000730FC00710DF80DF90DFA0DFB0DA00D72
:100412007408711C1E2AF8027508031C750FF90274
:100422007608031C760FFA027708031C770FFB028B
:100432000001031C0130A0022F2AF80775080318D7
:10044200750FF90776080318760FFA07770803186D
:10045200770FFB07000103180130A007F10DFC0B19
:10046200032A700DF80DF90DFA0DFB0DA00D74089D
:10047200711C4D2AF8027508031C750FF9027608E3
:10048200031C760FFA027708031C770FFB020001A8
:10049200031C0130A0025E2AF80775080318750FC5
:1004A200F90776080318760FFA0777080318770F0B
:1004B200FB07000103180130A007F00D0730FC0014
:1004C200700DF80DF90DFA0DFB0DA00D7408701CDE
:1004D2007C2AF8027508031C750FF9027608031CC2
:1004E200760FFA027708031C770FFB020001031C48
:1004F2000130A0028D2AF80775080318750FF90755
:1005020076080318760FFA0777080318770FFB07A8
:10051200000103180130A007F00DFC0B612A7018CE
:10052200A02A7408F80775080318750FF9077608EA
:100532000318760FFA0777080318770FFB070800EE
:10054200831203132230FC00F801F901FA01FB01C6
:10055200FC030319D72A0310FB0CFA0CF90CF80C54
:10056200F30CF20CF10CF00C031CA92AFC03031986
:10057200C92A7408F80775080318750FF907760871
:100582000318760FFA0777080318770FFB07AD2ACF
:100592007408F80775080318750FF9077608031829
:0E05A200760FFA0777080318770FFB0708009B
:1005B000FB14FB1FE22AFF30F300F200F100F00011
:0805C000FA0DF20CFF300800F7
:1005C80083120313F801F9011030FC00710DF80DC6
:1005D800F90D7408F8027508031C750FF902031861
:1005E800FC2A7408F80775080318750FF907031033
:0A05F800F00DF10DFC0BEA2A0800DB
:10060200A03083120313F0000F30F100F201F30166
:020612000800DE
:10061400A53083120313FD00FD0B0E2B0000000018
:020624000800CC
:0E0626008312031718088A00170882000800C4
:1006340083120313F8010830FC00700DF80D7408E0
:10064400F8020318272BF8070310F00DFC0B1F2BDF
:0206540008009C
:10065600831203172E08F2007208F100F20A2F081F
:10066600F000AF0A700884000008F00071088400EA
:10067600700880007108840000080319432B2F2B93
:060686002E08F000080040
:10068C008312031712102E08BA00B8200317121485
:02069C00080054
:10069E00831203137008F8007108F000F101F201E3
:1006AE00F301FB01FC019630F300FA017008F10032
:0C06BE007808F000F801F2017F2008002D
:1006CA00831203137408003A031D802B7508003A3D
:1006DA00031D802B7608003A031D802B7708003A09
:1006EA00031D802BFF30F000FF30F1007F30F20055
:1006FA00FF30F3001B2C83120313770803190F2C06
:10070A0073080319122C720876068039FA00F21758
:10071A00F617A1017208F8007108FC007008FD00C4
:10072A007408FD027508031C750FFC027608031C89
:10073A00760FF802F801FC01FD01031CAB2B031034
:10074A00F20CF10CF00CF80C0130A1007708F3025E
:10075A00031CB52B7E302107F3070318152CBA2B7F
:10076A007E302107F307031C182C1830FA07FD0DF9
:10077A00FC0DF80DF00DF10DF20DA10D7408F0024B
:10078A007508031C750FF1027608031C760FF20236
:10079A00760DA104211CD32B7D14DE2B7408F007DF
:1007AA0075080318750FF10776080318760AF20719
:1007BA007D10FA031F307A05031DBC2B7B1B7D1CA1
:1007CA00052C0310F00DF10DF20DA10D7408F002C5
:1007DA007508031C750FF1027608031C760FF202E6
:1007EA00760D21040139FD070318FC0A0319F80ADA
:1007FA00031D052CF80CFC0CFD0CF30A0319152C2F
:10080A00FA1FF8137808F2007C08F1007D08F0005E
:10081A0000301A2C0130AE201A2C02306B201A2C10
:0E082A000430D8221A2C083053200000080099
:1008380083120313FD01F8017008031900347406CC
:10084800FA00FA1BFD09FB01F41F2C2CF409F40A29
:10085800F01F302CF009F00A70087404FA00FA1B33
:10086800542C7408F802F00D700DF80D7408F80790
:10087800F00D0630FC00700DF80D74087018F802C1
:10088800701CF807F00DFC0B3F2C701CF8077B1848
:10089800622CFD1F0034F009F00AF809F80A003448
:1008A800F41F5F2CF01B5C2C7008F800F0014D2C35
:1008B800F001F00A0034F009FB0A352CF80A740834
:1008C8007802031D4D2CF801F00AF01F4D2CFF345F
:0208D800080016
:1008DA00831203139F01C0309F045709F000700868
:1008EA0083169F051F179F17831203172E08F00000
:1008FA00F00D7010F00D7010F00D701070080313E9
:10090A009F041F14B1201F151F1D8D2C0000892C58
:10091A001F101E08F100F00183161E08F0040030B3
:04092A00F1040800CC
:10092E0083120313FA017308031D7A147708031D4B
:10093E00FA147A080319E32C033A0319AE2C7A1829
:10094E00AB2CF61FE12CDF2CF21FDF2CE12C7208F2
:10095E008039FA00F21376088039F6137A060319F5
:10096E00BC2C7A080319DF2CE12C770873020319CB
:10097E00C32C031CD72CDB2C760872020319CA2C4D
:10098E00031CD72CDB2C750871020319D12C031C08
:10099E00D72CDB2C740870020319E32C0318DB2C04
:1009AE00FA080319E12CDF2CFA080319DF2CE12CCD
:1009BE0003140800031008000314031508000800B0
:1009CE0083120313FB017308031D770803193E2DD1
:1009DE0072087606FA007708F3077E30031CFB2CAC
:1009EE00F3020318412DFE2CF302031C442D720852
:1009FE00F8007108FC007008FD00F817F6170310D8
:100A0E00F201F101F0011830A1007D1C182D7408BF
:100A1E00F00775080318750FF10776080318760F9F
:100A2E00F207F20CF10CF00CF80CFC0CFD0C0310A0
:100A3E00A10B0C2DF21B282DF80DF00DF10DF20D62
:100A4E00F3037B1B701C3A2DF81F3A2DF00A031985
:100A5E00F10A0319F20A031D3A2DF20CF10CF00CF7
:100A6E00F30A0319412DFA1FF2130030462D0130FF
:100A7E006B20462D0230D822462D04305320000024
:020A8E0008005E
:100A90000123E830F4000330F500F601F701A1224C
:100AA00070080317B6007108B7007208B800730821
:100AB000B9002E08F4002F08F500F601F7012921EE
:100AC00070080317B6007108B7007208B800730801
:100AD000B9007008F5007108F6007208F700730895
:100AE000F800F80CF70CF60CF50CF813F80CF70CF2
:100AF000F60CF50CF8137508F0007608F10077088D
:100B0000F2007808F300F30CF20CF10CF00CF31384
:100B10007008B2007108B300012303173008F40015
:100B20003108F500F601F701A12203173208F90098
:100B30003308FA00FB01FC010330F8007908F400E7
:100B40007A08F5007B08F6007C08F700780803199E
:100B5000B02DF40DF50DF60DF70D7410FF3EA72D19
:100B6000292170080317B6007108B7007208B80091
:100B70007308B9000A30F4000030F5003208F000C4
:100B80003308F100E42270080317B2007108B300C3
:100B900000307102031DCE2D033070020318D12DD9
:100BA0001E2E130884003908003C031DE12D38086F
:100BB000003C031DE12D3708003C031DE12D3608E4
:100BC000003C03181C2E1008800433080319F82D6C
:100BD000B401B50100303502031DF02D3308340295
:100BE0000318F82DBA011621B40A0319B50AEA2D23
:100BF0003208BA0016211108800533080319102E97
:100C0000B401B50100303502031D082E330834024B
:100C10000318102EBA011621B40A0319B50A022EC0
:100C20003208BA0016210130B602031CB702031CB9
:0E0C3000B802031CB902D32D1108800508007C
:100C3E0083120317A201220821078400000803195A
:100C4E00302E2208210784000008AE004623A20A97
:040C5E00222E08003A
:100C620083120317A3010330230203183F2E230824
:100C72002207840020308000A30A342E2308220792
:100C820084008001A30323082207A4000A30F40091
:100C92002108F0001A237808F0003030F00703171B
:100CA20024088400700880000A30F4002108F00053
:100CB2001A2370080317A1007008003A031D622E60
:080CC200642EA303442E080078
:100CCA008312031721088D0083168C130C148312C8
:060CDA000C08F000080008
:100CE000831603178C1C762E0000702E83122108A9
:100CF0008D0022088C0083168C130C150B08F00055
:100D00008B1355308D00AA308D008C14F01B8A2E69
:0A0D10008B138B2E8B170C110800BB
:100D1A008312031721081F02F1002208031C013E57
:100D2A002002F20080307206F0008030013A700230
:100D3A00031DA12E2C3071020318EE2E003003136E
:100D4A006506031DAA2E01306406031DEE2EC83067
:100D5A000317AE00AF01FA30B000B10148250330E5
:100D6A00AE006D244F23700803179B0071089C0086
:100D7A0072089D0073089E000030F4000030F500F0
:100D8A004830F6008530F700E7240030F400C03020
:100D9A00F5007F30F6008830F70065237008EC0014
:100DAA007108ED007208EE007308EF000030F400DD
:100DBA000030F5007030F6008330F70097240130D8
:100DCA00031C0030F00070080319ED2EE401E50160
:040DDA008D2E080052
:100DDE0083120317A6012208F1000130F0007108FA
:100DEE000319FD2EF00D7010FF3EF72E7008A500B2
:100DFE002108840070080005F10071080130031D00
:100E0E000030F0002408F0060319262F2308003CBA
:100E1E000318162F0A230A230317A3030D2F2108E5
:100E2E00840025080005F10071080130031D003013
:100E3E00F0002408F0060319262FFF30A60026081E
:040E4E00F0000800A8
:100E520013238A110A128000840A970A0319980A36
:080E6200F003031D292F080015
:100E6A00472F803083120317A1005A2FC030A100E8
:100E7A005A2F9430A1005A2FD430A1005A2F803013
:100E8A00A1005A2F831203172108013A0319362F9A
:100E9A002108023A03193B2F2108033A03193E2F6E
:100EAA002108043A0319412F442F2203F000210894
:100EBA00F0077008A1007008BA00B82003171210D2
:100ECA00A40124082307840000080319742F2408A6
:100EDA00230784000008AE004623A40A662F1214D2
:020EEA000800FE
:100EEC00FF30831203179400FF309500FF309600FB
:100EFC00FF3003139F01C0309F045709F0007008A6
:0E0F0C0083169F051F179F1783121F140800DE
:100F1A0083120317210893002208F1000130F00020
:100F2A00710803199C2FF00D7010FF3E962F700860
:100F3A009000F00970089100803021078400700841
:0A0F4A00800584137008800508007C
:10100000831603138812081208108810081188111B
:1010100083128812081288110811881008108A118A
:1010200072208A158A1172208A158A1172208A15F7
:101030008814081488168A117D208A1588128A114E
:1010400072208A1588168A117D208A1588128A11C5
:1010500072208A1588168A117D208A1588128A11B5
:1010600072208A15081088168A117D208A15881228
:101070008A1172208A1588168A117D208A15881295
:101080008810881588168A117D208A1588128A1181
:1010900072208A158811081488168A117D208A15F5
:1010A0008812081088168A117D208A1588128A11E4
:1010B00072208A1588168A117D208A1588120814D4
:1010C00088168A117D208A1588128A1172208A1545
:1010D000081088168A117D208A158812881508152F
:1010E0008814081488168A117D208A1588128A119E
:0A10F00072208A150317121408007D
:1010FA0083120317AC01AD012108A8002208A90038
:10110A002308AA002408AB002B08FF3A031D9728DE
:10111A002A08FF3A031D97282908FF3A031D972832
:10112A002808FF3A031DA3282508AE005830AF004F
:10113A008A112B238A150330F000942A0130A60065
:10114A00AA1FB22880302A06F0007008AA00A60A50
:10115A00250884002D308000A50A0030F0002B06F7
:10116A00031DC12870082A06031DC1287008290614
:10117A00031DC1282808003A031DCC282508AE0003
:10118A005130AF008A112B238A15F001942A2B08BB
:10119A00FF3A031DDA282A08003A031DDA2829082B
:1011AA00003A031DDA282808003A031DE628250814
:1011BA00AE005330AF008A112B238A152608F0009F
:1011CA00942A0030F4000030F5000030F6007F3039
:1011DA00F7002808F0002908F1002A08F2002B0875
:1011EA00F3008A1197248A15013003180030F000A1
:1011FA00700803191F2903172808F0002908F100AD
:10120A002A08F2002B08F3000030F4000030F50041
:10121A002030F6008230F7008A11E7248A15700818
:10122A000317A8007108A9007208AA007308AB0086
:10123A00AD03E62803170030F4000030F500203033
:10124A00F6008230F7002808F0002908F1002A0881
:10125A00F2002B08F3008A1197248A150130031C27
:10126A000030F00070080319592903172808F00004
:10127A002908F1002A08F2002B08F300CD30F40007
:10128A00CC30F5004C30F6007B30F7008A11E724A9
:10129A008A1570080317A8007108A9007208AA0025
:1012AA007308AB00AD0A1F290317FF302805F800A1
:1012BA00FF302905F9007F302A05FA0000302B0596
:1012CA00FB007808F4007908F5007A08F6007B0834
:1012DA00F700F40DF50DF60DF70D74100030280522
:1012EA00F00000302905F10000302A05F200FF3035
:1012FA002B05F3007008A8007108A9007208AA005B
:10130A007308AB0074082804F00075082904F1007A
:10131A0076082A04F20077082B04F3007008A80064
:10132A007108A9007208AA007308AB007F302B026B
:10133A00F0007008A7000130AB007008F40028081C
:10134A00F0002908F1002A08F2002B08F3007408BB
:10135A000319B629F00DF10DF20DF30D7010FF3ED1
:10136A00AD297008A8007108A9007208AA007308BC
:10137A00AB002B08303EF00025088400700880007E
:10138A00A50A80302D06F0008030013A7002031C55
:10139A00D7298030063AF00080302D067002031CEF
:1013AA00D729DE29250884002E308000A50A0130BD
:1013BA00AC000630A7002708003A03193C2AAB0103
:1013CA002808F0002908F1002A08F2002B08F30087
:1013DA00F00DF10DF20DF30D7010F00DF10DF20D8F
:1013EA00F30D70102808F00729080318290FF107D0
:1013FA002A0803182A0FF2072B0803182B0FF307E2
:10140A007008A8007108A9007208AA007308AB0046
:10141A002808F0002908F1002A08F2002B08F30036
:10142A00F00DF10DF20DF30D70107008A80071089F
:10143A00A9007208AA007308AB002B08303EF0001E
:10144A002508840070088000A50A2C08003A031DAC
:10145A003A2AAD032D08003A031D3A2A25088400CA
:10146A002E308000A50A0130AC00A703E029FF3026
:10147A00250784000008303A031D452AA5033C2AA3
:10148A00FF302507840000082E3A031D4D2AA503C4
:10149A002D08003A0319902A250884006530800037
:1014AA00A50A80302D06F0008030003A7002031839
:1014BA00662A250884002D308000A50A2D08003CE4
:1014CA00AD002D08A7008030093AF00080302D06C3
:1014DA00700203187F2A0A30F4002708F0008A11E4
:1014EA001C248A153030F007031725088400700879
:1014FA008000A50A0A30F4002708F0008A111C248B
:10150A008A157808F0003030F007031725088400A0
:10151A0070088000A50A250884008001F0010800EF
:10152A005826073083120317A1000330A2008A113C
:10153A008D278A1583160313851506140616861633
:10154A00871007118B170B168B1501178B1607308F
:10155A008100831281010F308316EE000030EF0004
:10156A008A1176278A1500200130BA008A11B8201C
:10157A008A150C300317BA008A11B8208A1501306F
:10158A000317A1000630A2003130A3008A113527C3
:10159A008A150230A1000230A2003C30A3008A1151
:1015AA0035278A151030FB003930FC000D30FD005C
:1015BA00FD0BDD2AFC0BDD2AFB0BDD2A00000000F7
:1015CA000130BA008A11B8208A150317A1018A11BD
:1015DA0065268A1570080313CD00CE018312031302
:1015EA0000303006031DFB2A01302F06031D432B52
:1015FA0003171F080313E600031720080313E70065
:10160A004D080317A1006830A2008A1131268A15F5
:10161A000130BA008A11B8208A1503136608031725
:10162A001F02F10003136708031C013E031720027F
:10163A00F2008030F000803072067002031D272B02
:10164A0071083C3C031C3C2B0130A1000130A20074
:10165A002330A3008A1135278A150230A1000130F0
:10166A00A2006830A3008A1135278A15122B01308F
:10167A00BA008A11B8208A15AF01B00126082704DA
:10168A000319572B06300317A100A2010130A3004A
:10169A00A4018A11EF268A1570080319572B031320
:1016AA00A601A70103132D082E0403196D2B06307A
:1016BA000317A1000430A2000130A300A4018A117B
:1016CA00EF268A15700803196D2B0313AD01AE01BD
:1016DA0003300317AE008A116D248A158A114F232D
:1016EA008A15700803179B0071089C0072089D00F8
:1016FA0073089E000030F4000030F5004830F60010
:10170A008530F7008A11E7248A150030F400C030CA
:10171A00F5007F30F6008830F7008A1165238A15B4
:10172A007008EC007108ED007208EE007308EF0013
:10173A0070080317A1007108A2007208A3007308B9
:10174A00A400E530A5007D200430A1000130A200EC
:10175A002830A3008A1135278A15E530A1008A119D
:10176A001F268A150430A1001030A2002B30A300D6
:10177A008A1135278A150330FB008A30FC00553060
:10178A00FD00FD0BC62BFC0BC62BFB0BC62B00006A
:10179A0000000030F4000030F5007030F6008330AD
:1017AA00F70003136C08F0006D08F1006E08F200F0
:1017BA006F08F3008A1197248A150130031C003040
:1017CA00F00070080319152C6C08F4006D08F50078
:1017DA006E08F6006F08F7000030F0000030F100E4
:1017EA004830F2008430F3008A1197248A150130B8
:1017FA00031C0030F00070080319152C061A152C6A
:10180A0000302706031D0B2C00302606031D152C5D
:10181A00A601A701AD01AE01E401E501CF01D001A6
:10182A006C08F4006D08F5006E08F6006F08F70002
:10183A000030F0000030F1004830F2008430F3004C
:10184A008A1197248A15013003180030F0007008B5
:10185A000319482C00302706031D352C00302606B4
:10186A000319402C00302706031D3D2C01302606A3
:10187A000319402C482C0130AD000030AE00E401C1
:10188A00E501CF01D0016C08F4006D08F5006E087F
:10189A00F6006F08F7000030F0000030F100683001
:1018AA00F2008330F3008A1197248A150130031C51
:1018BA000030F000700803196D2CA601A701AD01D4
:1018CA00AE010130E4000030E500CF0A0319D00A66
:1018DA0000306506031D732C00306406031D882C36
:1018EA0000302706031D7B2C00302606031D882C9A
:1018FA0000302E06031D832C00302D06031D882C74
:10190A00871407118A2C8710071100306506031DFA
:10191A00902C00306406031D842D00303006031D10
:10192A00982C00302F06031D842D871100302706BE
:10193A00031DA12C01302606031DE52C00302E06BE
:10194A00031DA92C00302D06031DE52CE001E10141
:10195A00E201E301DC01DD01DE0A0319DF0A0030DE
:10196A005F06031DBA2C01305E06031DC22C01302E
:10197A000317BA008A11B8208A1580305F06F00072
:10198A0080307002031DCB2C01305E02031CE52C53
:10199A0001300317A1000130A200C430A3008A114C
:1019AA0035278A150330FB008A30FC005530FD00CC
:1019BA00FD0BDD2CFC0BDD2CFB0BDD2C00000000ED
:1019CA00003003132706031DEC2C00302606031DE6
:1019DA00302D00302E06031DF42C00302D06031D79
:1019EA00302DE001E101DE01DF01DC01DD01E20A67
:1019FA000319E30A00306306031D052D0130620650
:101A0A00031D0D2D01300317BA008A11B8208A155B
:101A1A0080306306F00080307002031D162D0130FD
:101A2A006202031C302D01300317A1000130A2000D
:101A3A00D630A3008A1135278A150330FB008A3075
:101A4A00FC005530FD00FD0B282DFC0B282DFB0B4F
:101A5A00282D00000000003003132E06031D372D29
:101A6A0001302D06031D842D00302706031D3F2D4E
:101A7A000030260603194A2D00302706031D472D7C
:101A8A000130260603194A2D842DDE01DF01E20109
:101A9A00E301DC01DD01E00A0319E10A0030610615
:101AAA00031D592D01306006031D612D01300317F6
:101ABA00BA008A11B8208A1580306106F000803099
:101ACA007002031D6A2D01306002031C842D01304F
:101ADA000317A1000130A200A030A3008A11352704
:101AEA008A150330FB008A30FC005530FD00FD0BDF
:101AFA007C2DFC0B7C2DFB0B7C2D000000000030A4
:101B0A0003136506031D8B2D01306406031D0F2E7A
:101B1A00DE01DF01E201E301E001E101DC0A031970
:101B2A00DD0A00305D06031D9C2D01305C06031D95
:101B3A00A42D01300317BA008A11B8208A15803003
:101B4A005D06F00080307002031DAD2D01305C028D
:101B5A00031CC72D01300317A1000130A200B330C6
:101B6A00A3008A1135278A150330FB008A30FC004E
:101B7A005530FD00FD0BBF2DFC0BBF2DFB0BBF2D00
:101B8A0000000000003003135006031DCE2D013063
:101B9A004F06031DE52D0317A1018A1165268A1533
:101BAA0070080313CD00CE01CD0A0319CE0A03171C
:101BBA00A10103134D080317A2008A1170268A1582
:101BCA0083120313871500305006031DEE2D0130D2
:101BDA004F06031DF32D0130F000F42DF0017018AB
:101BEA00FA2D831203138711FD2D83120313871510
:101BFA00871D0F2E03171F080313E600031720087B
:101C0A000313E70003171F08A1002008A2008A1186
:081C1A008D268A15F32A102E15
:101CB00023308400413083120313F00016300317E1
:101CC00097000E3098008A1129278A15A0308400C9
:101CD00045308312F000AA300317970007309800B0
:101CE0008A1129278A156430840002308312F0009B
:101CF000EF3003179700073098008A1129278A15BB
:021D00000800D9
:100F5400463449344E3420344134723472346F345C
:100F640073346134673465342034673461347A34DB
:060F74006F346E340034FE
:100F7A00533479347334743465346D3465342034BD
:100F8A0045346E342034503461346E346E346534F2
:020F9A00003421
:100F9C004134723472346F34733461346734653471
:100FAC0020344D3461346E34753465346C346C34A7
:040FBC006534003464
:100FC0004134723472346F3473346134673465344D
:0E0FD0002034673461347A346F346E34003468
:040FDE0000340034A7
:061C2C0050343D34003489
:041C32000034003446
:061C360048343D34003487
:041C3C002534003417
:041C40000034003438
:041C44000034003434
:101C4800573445344C3443344F344D3445342034C0
:061C580054344F34003447
:101C5E0053344D34413452345434203447344134A7
:101C6E005234443445344E342034323441343334D7
:021C7E00003430
:041C800000340034F8
:041C840000340034F4
:041C880030340034C0
:081C8C0049344E3446340034A3
:021C94000F340B
:081C96004E3461344E34003479
:041C9E0000340034DA
:041CA20000340034D6
:041CA60000340034D2
:041CAA0000340034CE
:02400E007A3BFB
:00000001FF
